:020000040800F2
:10000000A8080020890100083F150008B91400085D
:100010003D1500088D0400085B1900080000000071
:10002000000000000000000000000000DB180008D5
:10003000F504000800000000D9180008DD180008C9
:10004000A3010008A3010008A3010008A301000800
:10005000A3010008A3010008A3010008A3010008F0
:10006000A3010008A3010008A301000891040008EF
:10007000A3010008A3010008A3010008A3010008D0
:10008000A3010008A3010008A3010008A3010008C0
:10009000A3010008A3010008A3010008A3010008B0
:1000A000A3010008A3010008A3010008A3010008A0
:1000B000A3010008A3010008A3010008A301000890
:1000C000A3010008A3010008A3010008A301000880
:1000D000A3010008A3010008A3010008A301000870
:1000E000A3010008A3010008A301000800F002F822
:1000F00000F03AF80AA090E8000C82448344AAF188
:100100000107DA4501D100F02FF8AFF2090EBAE885
:100110000F0013F0010F18BFFB1A43F0010318473B
:10012000E837000008380000103A24BF78C878C1CA
:10013000FAD8520724BF30C830C144BF04680C60ED
:10014000704700000023002400250026103A28BF35
:1001500078C1FBD8520728BF30C148BF0B60704739
:100160001FB51FBD10B510BD00F09EF81146FFF77A
:10017000F7FF01F057FE00F0BCF803B4FFF7F2FF01
:1001800003BC00F0BFF80000094880470948004759
:10019000FEE7FEE7FEE7FEE7FEE7FEE7FEE7FEE737
:1001A000FEE7FEE704480549054A064B7047000094
:1001B00059190008ED000008A8020020A808002036
:1001C000A8040020A804002010B5203AC0F00B803D
:1001D000B1E81850203AA0E81850B1E81850A0E84B
:1001E0001850BFF4F5AF5FEA027C24BFB1E81850A5
:1001F000A0E8185044BF18C918C0BDE810405FEA15
:10020000827C24BF51F8043B40F8043B08BF704790
:10021000D20728BF31F8023B48BF11F8012B28BF95
:1002200020F8023B48BF00F8012B70474FF0000256
:1002300000B5134694469646203922BFA0E80C50DC
:10024000A0E80C50B1F12001BFF4F7AF090728BFB7
:10025000A0E80C5048BF0CC05DF804EB890028BF33
:1002600040F8042B08BF704748BF20F8022B11F05C
:10027000804F18BF00F8012B7047704770477047D8
:1002800010B500F009F8006810BD10B5044600F084
:1002900003F8046010BD00000048704744020020CD
:1002A00000487047440200207546FFF7F9FFAE464C
:1002B00005006946534620F00700854618B020B572
:1002C000FFF770FFBDE820404FF000064FF0000739
:1002D0004FF000084FF0000B21F00701AC46ACE8EE
:1002E000C009ACE8C009ACE8C009ACE8C0098D465B
:1002F000704710B50446AFF300802046BDE81040BB
:10030000FFF73BBF01491820ABBEFEE72600020005
:10031000704700000B4810B5094A026092158260D0
:1003200001220021027301754FF46023C361026151
:10033000416000F0BFF9002801D072B6FEE710BDA1
:10034000002401405000002070B504460068816818
:10035000C943C90717D1816821F00101816000F00C
:1003600021FD05460AE000BF00F01CFD401B0228ED
:1003700004D920688068C043C00706D02068806820
:10038000C043C007F0D0002070BDA06A40F010004C
:10039000A062E06A40F00100E062012070BD10B58B
:1003A0000146406A826A12F0500F05D0006A026B63
:1003B000BDE8104008461047816A41F4007181622F
:1003C00001688968C1F3424107290CD1017B51B909
:1003D000816A21F480718162816AC90403D4816ACF
:1003E00041F00101816200F0A3F810BD10B5406A30
:1003F000816A41F040018162C16A41F00401C16239
:1004000000F057F910BD10B5406A00F051F910BD69
:10041000F8B500260446009600688168C943C907FC
:100420002DD0816841F001018160164816490068AD
:10043000B0FBF1F000E0401E00900028FBD100F07E
:10044000B1FC054616E000BF00F0ACFC401B0228E2
:1004500010D920688068C043C0070BD0A06A40F064
:100460001000A062E06A40F00100E06284F82460BD
:100470000120F8BD20688068C043C007E4D1002097
:10048000F8BD00004C00002040420F00FEE70000D5
:10049000014800F06BBA00000002002030B590F86F
:1004A00040500124AC40C56B6C60046863604368D5
:1004B000102B036803D099600068C26030BD9A6059
:1004C0000068C16030BD000031B5084C656800F0BF
:1004D00013FE0749B0FBF1F000994143081A00915F
:1004E0006168491B8142FBD338BD0000001000E069
:1004F00040420F00704772B6FEE7000070B50B4C2B
:100500000022094BD4E90C0102F0B6FB06460D4669
:10051000206803F0BBF832462B4602F0F1FA02F0F5
:10052000BDFA206070BD00000000594000000020AE
:100530002DE9F04F87B0182255496846FFF744FE71
:10054000534810380FC801F025FD524AC2E9020194
:100550004F49182228316846FFF736FE4C481830BC
:100560000FC801F017FD4B4AC2E90401484918229F
:1005700050316846FFF728FE454840300FC801F06B
:1005800009FD444A424C203CC2E90601206802F0C1
:100590001EFD414F00223B4602F068FDDFF8FC8063
:1005A0000022434602F068FB02F078FAA4F120052D
:1005B000286003F06BF8DFF8E890DFF8E8A04A461F
:1005C000534601F059FDDFF8E0B0384B5A4602F0CF
:1005D0004DFD02F063FAA4F110063060606802F08D
:1005E000F6FC00223B4602F041FD0022434602F0A9
:1005F00043FB02F053FA686003F048F84A4653465A
:1006000001F03AFD5A46294B02F030FD02F046FA5D
:100610007060A06802F0DBFC00223B4602F026FD81
:100620000022434602F028FB02F038FAA86003F0EB
:100630002DF84A46534601F01FFD5A461B4B02F067
:1006400015FD02F02BFAB060E06802F0C0FC002259
:100650003B4602F00BFD0022434602F00DFB02F088
:100660001DFAE86003F012F84A46534601F004FD13
:100670005A460E4B02F0FAFC02F010FAF0602146E6
:1006800007B00422BDE8F04FA1F1500000F0E8B837
:10069000C0000020000000200000144000FEAF4019
:1006A00021B0726891EDF0BF295C8FC2F528284017
:1006B000704770472DE9F0414FF0000704003D46B8
:1006C0007ED0A06A002628B9E66284F8246020461D
:1006D00000F07EF82046FFF737FEA16AC90600D475
:1006E00020B1A06A40F01000A06269E0A16A21F484
:1006F000885141F00201A1626268E169237B0A43EB
:1007000047EA43010A43A1684FF48077B94209D010
:10071000012907D05FF0000194F814C0BCF1010F6B
:1007200002D00AE03946F7E7F3B1A36A43F02003A9
:10073000A362E36A43F00103E3622368D3F804C0D1
:100740002CF4694C4CEA010CC3F804C021688B6896
:10075000DFF870C003EA0C0313438B60A168B94251
:100760000BD0012909D00CE0DFF85CC0A3690CEBC9
:1007700043330B4343F40061DFE7218A0D05A5F500
:1007800080152168CB6A23F470032B43CB62216868
:1007900089680E4B1940914208D1E662A16A21F0A6
:1007A000020141F00101A162BDE8F081A06A20F0E0
:1007B000020040F01000A062E06A40F00100E06238
:1007C0000120F1E7FDF7E1FF00E0FFFFFE0E1FFF54
:1007D00070B586B0002506460095019502950395F3
:1007E00000681A4988422ED11949886940F400707E
:1007F0008861886900F400700490886940F0040002
:1008000088618869694600F0040004900F20009018
:10081000032001900F4800F0CBF9104C0E48C4E9BA
:1008200000058020C4E902508000206180006061E2
:100830002020C4E90605204600F042F908B1FFF780
:100840005AFE3462666206B070BD000000240140AA
:100850000010024000080140080002400002002091
:100860002DE9F047894604463B4900683B4F0E1D81
:100870009046884201D0B84207D1306810F4702FFA
:1008800003D001252846BDE8F08794F8240001280C
:100890000CD0012084F824002046FFF7B9FD0500A4
:1008A0004FF0000004D084F82400EBE70220EAE7D0
:1008B000A16A40F60162914341F48071A16221680E
:1008C000B94218D1326812F4702F14D0A16A41F4E1
:1008D0008011A1623168490505D5A16A21F4005152
:1008E00041F48051A162A16AC9040AD5E16A21F0EC
:1008F0000601E16206E0A26A22F48012A26249685F
:10090000E9E7E06284F82400216A15488862216AD8
:100910001448C862216A1448086321686FF0020015
:1009200008602068816841F48071816021684346D5
:100930004A464C31206A00F0F1F820688168C1F322
:1009400042410729816803D041F48011816099E711
:1009500041F4A001FAE70000002401400028014012
:100960009F03000807040008ED0300082DE9F05F6D
:10097000C16B0C6801680B68D0F840C0042202FA11
:100980000CF2494DDFF824A1494E4A4FDFF828B157
:10099000DFF828E122422CD05A072AD50A689206AD
:1009A00003D40A6822F004020A600168A94201D156
:1009B000042219E0514501D1402215E0B14202D193
:1009C0004FF4806210E0B94202D14FF480420BE054
:1009D000594502D14FF4802206E0714502D14FF40F
:1009E000800201E04FF080622F4908394A60C16AF5
:1009F0003BE04FF0020808FA0CF818EA040F4FF039
:100A000000094FF0010235D05FEA837832D50B68D8
:100A10009B0605D40B6823F00A030B6080F82120A5
:100A20000168A94201D1022219E0514501D12022D9
:100A300015E0B14202D14FF4007210E0B94202D188
:100A40004FF400520BE0594502D14FF4003206E05A
:100A5000714502D14FF4001201E04FF000721249CB
:100A600008394A6080F82090816A00291AD0BDE8D0
:100A7000F05F0847082505FA0CF5254212D01B0740
:100A800010D50B6823F00E030B6090F84010C36B79
:100A900002FA01F15960826380F8212080F82090E9
:100AA000016BE2E7BDE8F09F080002401C00024035
:100AB0003000024044000240580002406C000240F6
:100AC00030B528B308C8134914221944B1FBF2F118
:100AD0008900C16310498163022141771A6843F696
:100AE000F0718A43D0E900142143D0E902452C4338
:100AF000214304692143446921438469214311430B
:100B0000196000214163012242770177084630BD18
:100B1000012030BDF8FFFDBF0000024070B5044663
:100B200090F82000002501280CD0012084F8200036
:100B300094F821600020012E06D084F820000225C0
:100B4000284670BD022070BD022684F82160A06393
:100B50002068066826F0010606602046FFF79EFC26
:100B6000E06A00282068016802D041F00E0106E02A
:100B700021F0040101602068016841F00A01016070
:100B80002068016841F001010160D9E770B50446B1
:100B900000F008F90546601C02D0044800780444BF
:100BA00000F000F9401BA042FAD370BD40000020C5
:100BB0002DE9F84FDFF8B891002409F1040A0AF191
:100BC000040B23460F270BF1040EC9E00125A540B5
:100BD0002A40AA427DD1674ED1F804C0ACEB06088A
:100BE000B44532D014DCBCF1030F3AD009DCBCF1BF
:100BF000000F2AD0BCF1010F1CD0BCF1020F31D183
:100C00001DE0BCF1110F17D0BCF1120F2AD119E071
:100C1000B8F5881F19D006DCB8F5803F15D0B8F5B7
:100C2000801F1FD111E0B8F5001F0ED0B8F5041FCA
:100C300018D10AE0CB6815E0CB681B1D12E0CB6829
:100C400008330FE0CB680C330CE08B682BB1012B21
:100C50004FF0080303D0456104E0042302E005617E
:100C600000E00023FF2A01D8064601E000F1040657
:100C70004FEA840501D9A5F12005D6F8008007FACE
:100C800005FC28EA0C0803FA05F548EA0508C6F849
:100C900000804D68ED0062D5374DAE6946F0010623
:100CA000AE61AD6924F0030605F001050095334DF2
:100CB00006EB050CDCF80850A607360F07FA06F815
:100CC00025EA0805DFF8B880404503D14FF0000859
:100CD00017E044E0DFF8AC80404502D14FF0010856
:100CE0000FE0DFF8A480404502D14FF0020808E091
:100CF000DFF89880404502D14FF0030801E04FF043
:100D0000040808FA06F848EA0508CCF808804D6897
:100D1000D9F80060ED034D4601D5164300E0964337
:100D20002E604D68DAF80060AD03554601D51643D4
:100D300000E096432E604D68DBF80060ED025D46F2
:100D400001D5164300E096432E604D68DEF8006042
:100D5000AD02754601D5164300E096432E60641C33
:100D60000D682A46E5407FF431AFBDE8F88F0000FA
:100D7000000401400000111000100240000001407A
:100D800000080140000C0140001001400014014027
:100D90008068084000D0012070470AB101617047A7
:100DA0000904FBE70148806870470000400000200C
:100DB0000248816802781144816070474000002039
:100DC000074810B5016841F010010160032000F0F0
:100DD00075F80F2000F006F800F024F8002010BD90
:100DE0000020024070B50D4D04464FF47A7128780A
:100DF000B1FBF0F00A490968B1FBF0F000F048FBE4
:100E000048B9102C07D200222146501E00F036F8B7
:100E100000206C6070BD012070BD0000400000200B
:100E20004C0000200C4808B5816941F00101816146
:100E3000816901F001010091C16941F08051C161F6
:100E4000C06900F0805000900448416821F0E061E2
:100E500041F00071416008BD0010024000000140F7
:100E6000002809DB00F01F020121914040098000A9
:100E700000F1E020C0F8001170470000F0B40E4B04
:100E80001B680C46C3F30223C3F10705042D00D9E8
:100E90000425191D072901D2002300E0DB1E0126CD
:100EA00006FA05F1491E214099409E40761E1640E3
:100EB0003143F0BC00F066BD0CED00E0064900F0E7
:100EC000070208684FF6FF03184040EA0220034A71
:100ED00010430860704700000CED00E00000FA05C8
:100EE0002DE9F84305460078354CC00754D0E06939
:100EF0000026C00008D4E06940F08050E061E0695D
:100F0000012600F0805000902E480168C90512D4D7
:100F10000168804641F480710160FFF743FF074696
:100F200005E000BFFFF73EFFC01B642823D8D8F8B8
:100F30000000C005F6D5206A10F4407021D0A988C1
:100F400001F4407181421CD0206A1F49012220F423
:100F500040700A6000220A602062C00711D0FFF7CB
:100F600021FF074641F2883808E000BFFFF71AFF6B
:100F7000C11B414502D90320BDE8F883206A8007E0
:100F8000F4D5206A696820F44070084320621EB1DD
:100F9000E06920F08050E0612878800705D560681E
:100FA000A96820F44040084360602878C00605D551
:100FB0006068E96820F48000084360600020DBE797
:100FC0000010024000700040400442422DE9F0470A
:100FD0000F46050061D0434E306800F00700B8426C
:100FE00009D2306820F0070038433060306800F0E4
:100FF0000700B84251D128683B4C810712D5400701
:1010000003D5606840F4E06060602878000703D58D
:10101000606840F4605060606068A96820F0F0008B
:10102000084360602878C00728D06868012810D07D
:101030002168022810D0890700292EDA616821F082
:10104000030101436160FFF7ADFE804641F288393C
:101050000DE021688903EFE78901EDE7FFF7A2FEC4
:10106000A0EB0801494502D90320BDE8F08760687C
:10107000696800F00C00B0EB810FEFD1306800F030
:101080000700B8420BD9306820F0070038433060C1
:10109000306800F00700B84201D00120E5E7287869
:1010A000400705D56068E96820F4E06008436060A7
:1010B0002878000706D56068296920F4605040EA66
:1010C000C100606000F01EF86168084AC1F30311B6
:1010D000515CC8400649086006480068FFF782FE78
:1010E0000020C2E7002002400010024068380008DB
:1010F0004C000020440000200148006870470000B8
:101100004C00002012A185B00FC98DE80F0014A07B
:10111000144A006804905168134801F00C03042B32
:1011200010D0082B0ED1C1F38343C9031DF803006F
:101130000AD5516804AAC1F34041515C0A4A5043A0
:10114000B0FBF1F005B0704708494843FAE70000EA
:1011500002030405060708090A0B0C0D0E0F1010F8
:10116000010200000010024000127A0000093D0058
:101170002DE9F84F040070D02078C04DC00749D049
:101180006868C0F38100012807D06868C0F3810057
:10119000022809D16868C00306D52868800339D5BC
:1011A00060680028E7D035E06068B0F5803F0BD07C
:1011B00010B1B0F5A02F11D0286820F4803028603D
:1011C000286820F4802002E0286840F480302860FD
:1011D000606890B1FFF7E6FD06460AE0286840F433
:1011E00080202860F0E700BFFFF7DCFD801B64284B
:1011F00073D828688003F7D50CE0FFF7D3FD0646C7
:1012000005E000BFFFF7CEFD801B6428F0D82868FA
:101210008003F7D420789A4E80074FF001094FF0F1
:10122000000839D5686810F00C0F07D06868C0F363
:101230008100022809D16868C00306D428688007A5
:1012400014D52069012808D110E02069B0B1C6F892
:101250000090FFF7A7FD074605E00AE1FFF7A2FDB2
:10126000C01B0228C4D828688007F7D528686169A0
:1012700020F0F80040EAC10028600DE0C6F80080C8
:10128000FFF790FD074604E0FFF78CFDC01B022826
:1012900023D828688007F7D4207800072CD5794810
:1012A000A169D9B1C0F80090FFF77CFD074604E0C2
:1012B000FFF778FDC01B02280FD8686A8007F7D5B2
:1012C00071484FF4FA510068B0FBF1F0009000BF94
:1012D0000098411E0091FAD20EE080E0C0F8008034
:1012E000FFF760FD074604E0FFF75CFDC01B022826
:1012F00075D8686A8007F7D42078400760D5E86918
:101300000027C00008D4E86940F08050E861E8692F
:10131000012700F0805000905C480168C90513D493
:101320000168834641F480710160FFF73BFD82460E
:1013300006E000BFFFF736FDA0EB0A0064284ED898
:10134000DBF80000C005F5D5E06801280AD008B137
:10135000052813D0286A20F001002862286A20F0AE
:10136000040002E0286A40F001002862E06841F2CF
:10137000883B98B1FFF716FD82460BE0286A40F0E3
:1013800004002862EEE700BFFFF70CFDA0EB0A01A6
:1013900059455AD8286A8007F6D50CE0FFF702FDB8
:1013A000824605E0FFF7FEFCA0EB0A0159454CD848
:1013B000286A8007F6D41FB1E86920F08050E86100
:1013C000E06988B36968C1F38101022944D0022829
:1013D000C6F8608004D0FFF7E5FC044638E034E04E
:1013E000FFF7E0FC074604E0FFF7DCFCC01B022827
:1013F0002BD828688001F7D4206AB0F5803F05D14A
:101400006868A16820F4003008436860D4E90801E6
:101410000843696821F4741108436860C6F8609055
:10142000FFF7C0FC044606E025E000BFFFF7BAFC6A
:10143000001B022809D828688001F7D51BE000BFEF
:10144000FFF7B0FC001B022802D90320BDE8F88F8B
:1014500028688001F4D40EE00128F7D06868226A79
:1014600000F48031914204D1616A00F47010884226
:1014700001D00120EAE70020E8E700000010024068
:1014800000004242800442424C00002000700040B4
:1014900010B5401EB0F1807F01D3012010BD4FF088
:1014A000E02460610F21601700F06CFA0020A06159
:1014B00007202061002010BDFEE7000070B586B057
:1014C00000241C480094019402940394816941F023
:1014D00010018161816901F010010491816941F07D
:1014E00020018161816901F020010491816941F04D
:1014F00008018161816901F008010491816941F06D
:101500000401816180690C4E00F004004FF4005525
:101510000490002229463046FFF73FFC0120009549
:10152000CDE901040220039069463046FFF740FBF5
:1015300006B070BD0010024000100140FEE7FEE75B
:101540002DE9F04F85B00446DDE91278DDE910564B
:10155000DDE914B904F1400CDDF838A08CE80E0088
:1015600000200F49607002460346CDE90001204685
:1015700000F0E9F80120A0604946204600F0C2F8DA
:101580008DE8E009524620460F9B00F049F9FFF72D
:1015900009FCA168401A606005B0BDE8F08F00004A
:1015A00000E06F402DE9FC5F04464078002872D0CF
:1015B000FFF7F8FB61688346401AA16881427FD833
:1015C000206CD0E900718846A16C3A464346D1E9C7
:1015D000000101F071FFD4E9162305460E46384696
:1015E000414601F069FF81468A46D4E90C012A464A
:1015F000334601F03BFDD4E9142301F081FAC4E93C
:101600001401CDE90001207858B9D4E90A014A460D
:10161000534601F02BFDDDE9002301F05BFEC4E938
:101620001401D4E91401D4E91A2301F01DFE02D2F9
:10163000D4E91A0108E0D4E91401D4E9182301F02F
:10164000D9FC03D2D4E91801C4E91401207840B1CF
:10165000D4E90A012A46334601F008FD05460E4644
:1016600001E000252E46D4E90E014A46534601F01A
:10167000FDFCD4E9142301F02DFE2A46334601F087
:101680003FFAD4E91A2305460E4601F0EDFD04D2D7
:10169000D4E91A560AE011E012E0D4E918232846EA
:1016A000314601F0A7FC01D2D4E91856606CC0E9BC
:1016B0000056C4F804B0C4E916780120BDE8FC9FC8
:1016C0000020FBE710B5416C0446D1E90001C4E9F4
:1016D0001401236CD3E90023C4E91623D4E91A23A7
:1016E00001F0C2FD02D2D4E91A0108E0D4E91401E4
:1016F000D4E9182301F07EFC03D2D4E91801C4E92F
:10170000140110BD427872B1C2788A420BD0C36A0C
:1017100083F00043C362436B83F000434363C36BB6
:1017200083F00043C363C170704770B5044601295C
:1017300001D0002505E06078012510B92046FFF7AB
:10174000C1FF657070BD2DE9F0411746DDE9066502
:101750009846044632462B463846414601F084FD01
:1017600034D9C4E91A65C4E91878607832462B4642
:1017700000282BD0616CD1E9000101F075FD03D286
:10178000D4E91A01626C0AE0D4E91823616CD1E94A
:10179000000101F02FFC04D2D4E91801626CC2E907
:1017A0000001D4E91401D4E91A2301F05DFD02D24D
:1017B000D4E91A0108E0D4E91401D4E9182301F0AE
:1017C00019FC03D2D4E91801C4E91401BDE8F08181
:1017D0002DE9F0410E1E044620DDA06801F0F7FB64
:1017E00007460D46304601F0DBFB3A462B4601F03A
:1017F00043FA07460246D4E90C0E0D460B467146E5
:1018000001F034FCC4E90C01D4E90E0E3A462B4633
:10181000714601F031FAA660C4E90E01BDE8F0811D
:101820002DE9F84F15461E46DDE90BB904460022A6
:10183000134628463146DDF828A00E9F01F0DAFB5A
:1018400044D3002213465046594601F0D3FB3DD302
:101850000022134648460D9901F0CCFB36D3A77001
:10186000012F35D05FF0000004F8100BA4E8600CE5
:101870000D9964E80891A06801F0A9FB0022154BBE
:1018800001F0FAF9C4E90A560746884652465B4613
:10189000009601F0EBFBC4E90C0106468A463A4685
:1018A000434648460D9901F0E7F9C4E90E01E27894
:1018B000012A0BD1009A81F0004182F00042C4E974
:1018C0000A528AF00042E163C4E90C62BDE8F88F75
:1018D0000120C9E700408F4070477047FFF768BAA2
:1018E00030B593B028216846FEF7A0FC14210AA861
:1018F000FEF79CFC002501200F9510951195010421
:1019000012958DE8230004904FF4E010CDE9081003
:10191000022407946846FFF72BFC08B172B6FEE775
:101920000AA90F2081E831004FF48060CDE90D0550
:1019300002210AA8FFF74AFB08B172B6FEE74FF48E
:10194000004011900F940FA8FFF7CAFA002801D0A9
:1019500072B6FEE713B030BD7047FEE7490050EAAB
:10196000C12018BF04204A0D18BF40F0010040F20A
:10197000FF72B2EB515F08BF40F00200012808BFC0
:10198000052070470907090E002804DB00F1E0205C
:1019900080F80014704700F00F0000F1E02080F89C
:1019A000141D70472DE9F0414F1E00EBC70104469E
:1019B000D1E9000115461E4637F006020DD02A4631
:1019C000334601F053FB7F1E04EBC703D3E900232A
:1019D00001F096F837F00602F1D1022F25D0042F3E
:1019E00013D0062F18BFBDE8F0812A46334601F018
:1019F0003DFBD4E90A2301F083F82A46334601F07F
:101A000035FBD4E9082301F07BF82A46334601F080
:101A10002DFBD4E9062301F073F82A46334601F082
:101A200025FBD4E9042301F06BF82A46334601F084
:101A30001DFBD4E9022301F063F82A46334601F086
:101A400015FBD4E90023BDE8F04101F059B80000CE
:101A5000002213461046014901F00EB90000F03F84
:101A600001F04EB8002213461046114601F004B9A9
:101A700040F2013200204FF0E04101F0AFBE000023
:101A8000024A0020110701F0A9BE000001FDFFFF7E
:101A90002DE9FE4F88460646D8E902410D4601224F
:101AA000204601F09BFED8E900939A464A4601F091
:101AB00027F8D8E9047398463A4601F021F8CDE9B1
:101AC0000001D6E906013A46434601F0CFFA07463F
:101AD000D6E9040C8B4622462B46614601F0C6FA35
:101AE0000290D6E9020C884622462B46614601F058
:101AF000BDFA04460D46D6E900014A46534601F0B8
:101B0000B5FA22462B4600F0FBFF4346029A00F04E
:101B1000F7FF3A465B4600F0F3FFDDE9002303B030
:101B2000BDE8F04F01F0A8B82DE9F05F0446154676
:101B30001E46D4E904230F462846314601F05AFADE
:101B400002D200205D492AE0D4E904232846314628
:101B500001F08AFB1AD8D4E902232846314601F065
:101B600049FA13D804F108000FC88046894601F0ED
:101B7000A3FC82468B462A4633464046494601F03E
:101B80009BFC52465B4601F077F808E0D4E902235B
:101B90002846314601F068FB03D200200146C7E920
:101BA0000001D4E904232846314601F023FA02D289
:101BB000002001463FE0D4E904232846314601F0E5
:101BC00053FB19D8D4E902232846314601F012FA12
:101BD00012D8D4E90483D4E902019946424601F0BF
:101BE0006BFC82468B4642464B462846314601F006
:101BF00063FC52465B461CE0D4E90223284631468A
:101C000001F032FB23D8D4E900232846314601F005
:101C1000F1F91CD804F108000FC801F04DFC804612
:101C20008946D4E900012A46334601F045FC424684
:101C30004B4601F021F8C7E90201D4E90223284606
:101C4000314601F0D7F90AD20020014628E0D4E954
:101C500000232846314601F007FBEED2A8E7D4E97D
:101C600002232846314601F0FFFA1DD8D4E90023AB
:101C70002846314601F0BEF916D8083494E80F0022
:101C800080460C4601F018FC81468A4642462346AF
:101C90002846314601F010FC4A46534600F0ECFF5E
:101CA000C7E90401BDE8F09FD4E900232846314686
:101CB00001F0DAFAF6D200200049F1E70000F03F27
:101CC0002DE9F04115460E460446012B4ED0022B5D
:101CD0004AD1D4E90272D4E904C090460346624670
:101CE0003846414601F0E8FBD6E9042301F0BEF98D
:101CF0003A46434601F0EEFAC5E90001D4E904731F
:101D0000D4E9020198463A4601F0D6FBD6E902230F
:101D100001F0ACF93A46434600F0F2FE0834C5E95A
:101D2000020194E80F00083C01F0C6FBD6E902234B
:101D300001F09CF9D4E9002301F0CCFAC5E90401D3
:101D4000D4E9042CD4E902710C466346384601F00C
:101D5000B3FBD6E9002301F089F93A464FEA0403C0
:101D600000F0CEFEC5E90601BDE8F081D4E90382AA
:101D7000A76841463846636901F09EFBD6E9002317
:101D800001F074F943463A4601F0A4FAC5E90001AE
:101D9000D4E90473D4E9020198463A4601F08CFB79
:101DA000D6E9022301F062F93A46434600F0A8FE64
:101DB0000834C5E9020194E80F00083C01F07CFBFF
:101DC000D6E9022301F052F9D4E9002301F082FAA6
:101DD000C5E90401D4E90423D4E902C764463946BD
:101DE000604601F069FBD6E9042301F03FF9224681
:101DF0003B46B5E770B50DF1100C9CE87200C0E9E8
:101E00000214C0E90423C0E9005670BD70B50DF19D
:101E1000100C9CE87200C0E90214C0E90423C0E978
:101E2000005670BD88B0FEF7CBFFFFF759FDFFF7F6
:101E300045FB4B48416941F0010141614069002285
:101E400000F00100009011460B20FFF717F80B205F
:101E5000FFF706F8FEF75EFA42490020CDE90201DD
:101E600041490246CDE90001404B4148FFF7C2FF1E
:101E700040490020CDE902013F490246CDE9000179
:101E80003B48394B1830FFF7C1FF394900223B4B23
:101E900030313748FFF748FE354A01234832A2F176
:101EA0001801A1F11800FFF70BFF3149303101F1A2
:101EB0001800FFF7EDFD324C04F13803C4E90801C6
:101EC0002C490020C4E90E012E490790CDE90401F8
:101ED00026490690CDE902010903CDE90001244815
:101EE000A3F10802A2F108016830FFF729FB20489E
:101EF00001216830FFF719FC1D484FF4FA71683072
:101F0000FFF766FC002020490246CDE90001184891
:101F10001E4B6830FFF717FC15494FF48070783975
:101F200088801B480860283142158A800860283163
:101F300002158A80086060390422A1F15000FEF782
:101F40008FFC00BFFEF7DAFA01F0A0FBC4E90A013A
:101F500007486830FFF726FB6420FEF717FEF1E71D
:101F60000010024000002E400000244000001440F9
:101F7000280100200000494000003E4000002040B1
:101F8000000000200000F03F00005940000059C050
:101F9000000C01402DE9FF5F1546DDE90E9A8FB276
:101FA0000446984600223946FEF7F7FE01204FF01E
:101FB000000B0226CDE90070CDE902B62046694645
:101FC000FEF7F6FD204601223946FEF7E6FE052023
:101FD000FEF77AFA204600223946FEF7DEFE40F28E
:101FE000EE20FEF771FA0097CDE901B6204669466A
:101FF000FEF7DEFD002620463946FEF7C9FE60B139
:10200000002228464146134600F08EFF12D130468A
:1020100000F0C6FF054688460CE020463946FEF72C
:10202000B7FE38B9732E05DD304600F0B9FF8146A2
:102030008A4607E00120FEF747FA44F64400761C82
:102040008642D8DB2A4643464846514601F034FAD8
:102050000022084B00F010FE4FF0FF3201F0BEFBF3
:1020600004460D460A20FEF791FD04B0204629469D
:10207000BDE8F09F00004D402DE9F04D1D460C4697
:1020800098B0174621F0004123F00043002814BF08
:102090004FF0010C4FF0000C0CEB440CFE4A0CEB23
:1020A00002064FEA620C66452BD33E0018BF01269C
:1020B00006EB45061644F94A964222D3F84A53EAFB
:1020C000070C02D0944205D148B918B0002011463F
:1020D000BDE8F08D002808BF4FF0000C01D04FF094
:1020E000010C0CEB440212F5001F0AD8002F14BF9C
:1020F0004FF0010C4FF0000C0CEB450212F5001FE5
:1021000007D918B03A462B462146BDE8F04DFFF7F7
:10211000A7BC0022DFF88CA3002CB8BF534526DAF9
:10212000DFF884C36345A8BF022220DADFF870C35A
:102130009C451CDCDFF874C30CEB235CBCF1140F72
:1021400008DDCCF1340627FA06FC0CFA06F6BE428E
:102150000DD108E05FB9CCF1140623FA06FC0CFAA5
:1021600006F69E4203D10CF00102C2F1020251EACE
:10217000000C19D1002D17DA002C18BF022A01D04B
:10218000012A07D00220FEF780F818B0BDE8F04D14
:10219000FFF75EBC0220FEF778F8FFF759FC18B095
:1021A00081F00041BDE8F08DB7F1000C6CD15345D2
:1021B00025D104F1804212F5801201BF00280020D1
:1021C000B74918B008BFBDE8F08DB548884207DCB4
:1021D000002DA1BF6046294618B0BDE8F08D07E08C
:1021E000281E05DA80F0004118B06046BDE8F08D89
:1021F000AF497944D1E9000118B0BDE8F08DDFF8AE
:10220000A0C2634525D1002D1FDA19B1514512D165
:10221000D8B909E0002840F0EC82A24A214618B063
:1022200062F31E01BDE8F08D0020214618B060F376
:102230001E01BDE8F08D08DA18B02346BDE8F04D68
:1022400002460020614600F017BD18B02146BDE8E7
:10225000F08D514518DAB5F1804F0DD0A5F1005C35
:10226000BCF1FF5C10D1B4F1000C0DDB18B061467D
:10227000BDE8F04D00F0ECBB234618B00246BDE8C7
:10228000F04D194600F0F2BE060024F0004C3BD1A0
:10229000D9B1514533D1002C06DD002DA1BF00205E
:1022A000514618B0BDE8F08D002C01DD002D1BDB80
:1022B000002C13DA002D11DB012A4FF0000014BFAF
:1022C00078497C4918B0BDE8F08D022A18BF002C6F
:1022D0000AD0012A08D1002C06DA0AE0002CB8BF87
:1022E000002D11DA012A04D0002018B00146BDE803
:1022F000F08D18B000204FF00041BDE8F08DA1F145
:102300004050B0F17F601AD0012000EBE47050EA39
:10231000020421D0624C521E4FF0000B104304BF48
:102320004FF0000B644C654883427CDD644A65488D
:1023300093421FDD884217DB002D25DB37E0002CA0
:1023400000DA4AB1022A0CBF01204FF0FF3018B06A
:10235000BDE8F04D00F024BE0120FDF796FF18B057
:10236000BDE8F04DFFF77EBB4D4A8A4202DC002DEE
:102370000ADC1CE0814202DA002D18DA04E0484B46
:10238000994220DD002D12DD0220FDF77EFFFFF7D0
:102390006FFB05460E46002253465846214600F084
:1023A00065FE18B066F31E012846BDE8F08D0220D8
:1023B000FDF76BFFFFF764FB0A46214618B062F396
:1023C0001E01BDE8F08D00223046614601F074F830
:1023D00080460E466FF0010201F000FA4FF05532D0
:1023E000394B00F077FF4246334600F03FFE0022B3
:1023F000364B00F06FFF824642463346049110464A
:10240000194600F033FE5246049B00F02FFE8A4628
:1024100000904FF0C0422E4B4046314600F026FE61
:102420002C4A2B4B00E027E0CDE9060151460098ED
:1024300000F01CFE82460191274A284B4046314657
:1024400000F014FE5246019B01F036F882460B461E
:1024500002460591DDE9060100F052FBDDE90623A5
:1024600000268846304601F027F85246059B00F0CA
:1024700031FF024600F07EB90020B1F5801F07DA77
:1024800035223046614601F0A9F906466FF0340066
:1024900000EB215024E00000FFFF1F00FFFF0F00B2
:1024A0000000F03F0000F07F0000404301FCFFFF10
:1024B0000A1700000000F0FF0000F0BF0000E0413C
:1024C0000000F043FFFFEF3F5555D53F0000E03FD0
:1024D0004715F73FFE822B6544DF5DF80BAE543E97
:1024E000A0F2FF300190C1F3130040F07F6141F092
:1024F00040510291FE498842D8BF002004DDFD49C9
:102500008142C8BF012001DD0D9008E000200D9040
:102510000198401C01900298A0F580100290029949
:10252000F54878440B910D9900EBC100D0E90023E8
:102530000F9330460A920B9900F0BEFFCDE90601D9
:10254000DDE90A2130460F9B00F0DAFA02460B461D
:102550000020EA4900F090FB059102460B460090EE
:10256000DDE9060100F082FD1490E5488A464FF04F
:10257000000878440299006812904FF0005040EA39
:1025800061010D980F9B01EB804000F5002109913E
:102590000A9A129800F090FF32460B9B00F09AFEC8
:1025A0004246534600F062FD0646029140465146BF
:1025B000099B129A00F05AFDDDE9062300F08AFE1D
:1025C0003246029B00F078FF059B009A00F04EFD1A
:1025D0000091149A049053461046194600F046FDA7
:1025E00006460246C7480B46029106217844FFF78B
:1025F000D9F9CDE90510029B32461046194600F084
:1026000035FDDDE9053200F031FD05910646534602
:1026100040461946149A00F073FA009B049A00F0A1
:1026200025FD3246059B00F06BFACDE905104246C8
:1026300053461046194600F019FD0022B24B029194
:102640000A9000F05DFADDE9053200F059FA0E4615
:102650004246AD4B404600F02FFF029B0A9A00F025
:102660002BFFDDE9053200F035FE424602910A906B
:1026700033461046514600F0F9FCCDE906015346B9
:10268000149A02990A9800F0F1FC8A4602903346A7
:1026900042460099049800F0E9FC5346029A00F083
:1026A0002FFA82460B4602460591DDE9060100F04D
:1026B00027FADDE9062300208846064600F0FCFEE6
:1026C0005246059B00F006FE824609914FF060429B
:1026D0008E4B3046414600F0C9FC049006918C4A6E
:1026E0008A4B5046099900F0C1FC82460291894A02
:1026F000894B3046414600F0B9FC5246029B00F03F
:10270000FFF9864B7B440D9A03EBC203D3E9002308
:1027100000F0F6F90E900791019800F041FC059148
:10272000DDE9061382460E9A049800F0E9F97C4A26
:102730007A440D9B02EBC303D3E90023009302927A
:1027400000F0DEF95246059B00F0DAF900268846D3
:1027500052463046059B00F0AFFE009B029A00F007
:10276000ABFE069B049A00F0A7FE079B0E9A00F0B2
:10277000B1FD024600200B4602903846294600F083
:1027800075FC824601912B4638461946029A00F0A4
:1027900093FE3246434600F069FC5246019B00F02E
:1027A000AFF907468A46324643462946029800F06A
:1027B0005DFC05460E463A46534600F0A1F9594ADB
:1027C0008846914221DBA8EB020353EA000210D1B4
:1027D0002A46334600F070FECDE90401524A534BBD
:1027E0003846514600F08CF9DDE9042300F03CFD49
:1027F00021D20220FDF749FDFFF73AF90A462146AA
:1028000018B062F31E01BDE8F08D494B28F000427C
:102810009A4210D3474A08EB020353EA00027FF4BE
:10282000C6AD2A46334600F047FE3A46534600F00E
:102830001BFD7FF6BCAD0022019228F000403E490E
:102840003E4A01EB2051824223DA481C4FF48011AA
:1028500021FA00F040443A4AC0F30A517A44394B15
:10286000A1F2FF31CB4020EA0303C0F3130040F490
:102870008010C1F11401C84012680190B8F1000F36
:10288000BCBF404201902846314600F015FE054687
:102890000E462A4633463846514600F031F94FF08D
:1028A00000084246284B4046059100F0DFFBCDE989
:1028B0000601264A264B4046059900F0D7FB0091B9
:1028C00002902A4633464046059900F0F5FD3A4607
:1028D000534600F0FFFC1F4A1F4B00F0C7FB009B54
:1028E000029A00F00DF90746884602460B4635E08D
:1028F0008E9803007AB60B00521300000000F03FE0
:102900008A130000B81200000000084009C7EE3F1B
:10291000FD033ADCF5015B14E02F3EBE9011000090
:102920005411000000009040FE822B654715973C33
:1029300000CC904000346F3F01FCFFFF0000E03FFF
:10294000A0100000FFFF0F00432EE63F396CA80CDB
:10295000615C20BEEF39FAFE422EE63FDDE906015A
:1029600000F0CEF8DDE9062305460E4600F0A4FD92
:102970003A46434600F0AEFC0F462A4633460090E6
:102980001046194600F072FB824602462E488846E1
:102990000B4605217844FFF705F85246434600F000
:1029A00065FB2A46334600F095FC80468A463B4646
:1029B00028463146009A00F059FB3B46009A00F049
:1029C0009FF80691009000224FF080434046514608
:1029D00000F072FD0F460C904246534628463146A1
:1029E00000F044FB3B460C9A00F046F9069B009A27
:1029F00000F062FD2A46334600F05EFD0022134BD4
:102A000000F068FC054601980E4601EB00510815E0
:102A1000002810DC28463146019A00F0DFFEFEF760
:102A20009DFF042808BFFFF72BF828463146019A7E
:102A300000F0D4FE05460B4618B02A4658462146FB
:102A4000BDE8F04D00F012BB400F00000000F03F69
:102A50002DE9F04106460F4600F048FC041E0D46E5
:102A600018BF0120284320F00040C0F17F6000F132
:102A7000E040C00F0ED0301C18BF0120384320F0BA
:102A80000040C0F17F6000F1E040C00F04BF0120B2
:102A9000FDF7FBFB20462946BDE8F08121F000420E
:102AA000A2F16052B2F5801F01F0004328BFD2F1BD
:102AB0007F6C0BD95FEA001C43EAC20242EB507004
:102AC00018BF704728BF20F001007047B2F5801F83
:102AD000BCBF184670474FEA410C1CF5001F02D2DC
:102AE000084600F044BE70B500F06AFB00000089A3
:102AF000FFF7F6BF4FF00040A0F5800070470000E0
:102B000010B591EA030F48BF83F0004300F1DC8465
:102B1000841A71EB030C05D2121943EB0C03001B52
:102B200061EB0C01DFF824E14FEA1154A4EB135CD4
:102B30001EEA430F18BF9EEA445F73D023EA0E03D8
:102B4000DCF1200E21EA045143F4801332D322FA3F
:102B50000CFE10EB0E0023FA0CFE41EB0E01CCF143
:102B6000200E03FA0EFE10EB0E0051F10001B1F53C
:102B7000801FCCF1200E32D201EB045112FA0EF27A
:102B8000BDE8104058BF7047401C38BF5FEA4202A2
:102B900018BF7047002814BF20F0010041F1000168
:102BA0004FEA410313F5001F38BF7047A1F1C04140
:102BB00000F054BB012A43EB0302ACF1200CDCF122
:102BC0001F0E32BF4FF0000E23FA0CF310EB030080
:102BD00041EB0451B4EB115FD0D0A1EB045101F5EE
:102BE000801149085FEA300001EB04510ED350F127
:102BF000000038BF12FA0EFE08D1BDE81040C9E748
:102C0000401C38BF5FEA4202CAD1C3E7BDE81040AA
:102C10004FEA410313F5001F38BF7047A1F1C041CF
:102C200000F01CBB9EEA445F08D011EA5E0FBDE8CD
:102C3000104004BF01F0004100207047BDE8104083
:102C400070B500F0BDFA00BF64FBBE3E0000E0FFBF
:102C500002494FF0000000F08FBD00BF0000F87F78
:102C6000491058BFC1F140415B1058BFC3F1404308
:102C70008B42EFF3008070472DE9C04130B4DFF89C
:102C8000A0C23CEA111418BF3CEA131400F0EC8017
:102C900081EA03051CEA111444EAD57418BF1CEA42
:102CA000131500F0C780A4EB05044FF0004545EA7A
:102CB000C12145EAC32341EA505143EA525304F18A
:102CC0007F74994204F500344FEAC0204FEAC222D3
:102CD00008BF904200F09C804FEA13650FF2401647
:102CE000765D4FEA134506FB05F7C7F1807706FBD3
:102CF00007F74FEAD737A7FB03687642C8F5803855
:102D0000A7FB06CE38BFA8F1010807FB08E64FF085
:102D1000000EA6FB028CE6FB03CEDCF1000CCEF12C
:102D2000004E38BFAEF1010EA6FB0C584FF0000765
:102D30004FF00005E6FB0E87A1FB08C6A0FB07CEFF
:102D400016EB0E0645F10005E1FB076515F1E04EB7
:102D50007EBFA4F580345FEA46066D4116F1800718
:102D600045F100054FEA17274FEA066647EA05676F
:102D7000A6F1DE46B6F1805F4FEA15251FD9384629
:102D800024F0010C05EBC471BCF1FE6F01EB0C11DA
:102D900002D8F0BCBDE8008124425CBF01F5801E72
:102DA0009EEAC47F02D4F0BCBDE80081244238D43E
:102DB000F0BCA1F1C041BDE8004100F04FBA4FEABC
:102DC000D22242EA43524FEAD323A7FB02864FEABC
:102DD000D02040EA415007FB03661EEA0E0F4FEA7F
:102DE000D12105FB026658BFA6EB0056B6EB005694
:102DF0004FEA520E4EEAC37E18EB0E0E56EB530E00
:102E0000BDD518EB02085E417F1C55F10005B6E701
:102E10004FF480154FF000074FF000064FF0000808
:102E2000ADE7F0BC4FF0000001F1C04101F00041FE
:102E3000BDE8008111EA0C1F0CEA131500D00CE06C
:102E400013EA0C1F00F025804FF00000F0BC81EA6F
:102E5000030101F00041BDE80081F0BCBDE8004184
:102E600081EA030100F0FAB9F0BCBDE8004170B599
:102E700000F0A6F9097EFC3E00F007B881EA0301E4
:102E80004FF0000001F00041704781EA030100F0BB
:102E9000E5B9F0BCBDE800414FF0000021497047A2
:102EA000FFFDFBF9F7F5F4F2F0EEEDEBE9E8E6E40F
:102EB000E3E1E0DEDDDBDAD8D7D5D4D3D1D0CFCD96
:102EC000CCCBCAC8C7C6C5C4C2C1C0BFBEBDBCBBCF
:102ED000BAB9B8B7B6B5B4B3B2B1B0AFAEADACABCA
:102EE000AAA9A8A8A7A6A5A4A3A3A2A1A09F9F9EA4
:102EF0009D9C9C9B9A999998979796959594939356
:102F0000929191908F8F8E8E8D8C8C8B8B8A8989EC
:102F1000888887878685858484838382828181806F
:102F20000000FF070000F87F51EA030C17D41CF5DE
:102F3000801F58BFBCF5801F00F10680994218BF62
:102F4000704708BF9042704707D711F5801F58BFE0
:102F500013F5801F19D499427047894270471CF5B8
:102F6000801F08D5BCF5801FF7D58B4218BF70476E
:102F700008BF824270474FF4001C1CEB410F38BF62
:102F80001CEB430F01D28B42704770B500F018F96B
:102F9000922449004FF000514FF08053FFF760BE7C
:102FA00010F0004248BF4042B0FA80F310FA03F13B
:102FB0000AD0C3F11D0303F580634FEA415002EBD1
:102FC000035202EBD12170474FF000007047B0FA76
:102FD00080F310FA03F10AD0C3F11D0303F58063F7
:102FE0004FEA41504FEA035202EBD12170474FF0B4
:102FF0000000704751EA030C17D41CF5801F58BF1E
:10300000BCF5801F00F10680994218BF704708BFC9
:103010009042704707D711F5801F58BF13F5801FE6
:1030200019D499427047894270471CF5801F08D512
:10303000BCF5801FF7D58B4218BF704708BF82428E
:1030400070474FF4001C1CEB410F38BF1CEB430FC3
:1030500001D28B42704770B500F0B2F8922449005B
:103060004FF000514FF08053FFF7FABDDFF848C131
:1030700070B51CEA111E1EBF1CEA13159EEA0C0F48
:1030800095EA0C0F00F06F8081EA030423EA4C13E9
:103090004EEAD47E21EA4C1141F4801143F48013AE
:1030A000AE44A1FB024CA0FB0365AEF17F7E361956
:1030B00055EB0C05A1FB034C4CF10003A0FB021CDB
:1030C00016EB0C06654153F10003094218BF46F0A8
:1030D000010613F4007F0BD14FEA03314FEA0530AC
:1030E000340341EA155140EA16506FF003020AE03A
:1030F0004FEAC3214FEAC520F40241EA555140EAA4
:1031000056506FF0020202EB2E4201EB025585EAA7
:10311000CE710AD05FEA440C18BF24F0004450F18D
:10312000000041F1000120EAD47040F2FE7C6245CB
:1031300000D270BDA84214BF4FF080444FF040440D
:10314000002E08BF0024BEF1806FA8BFA1F1C041CE
:10315000BDE8704080F282804FF0000001F1C04174
:1031600001F0004170479EEA0C0F0CEA131518BFDE
:1031700095EA0C0F06D04FF0000081EA030E0EF026
:10318000004170BD00F01CF88900013E00F007B856
:1031900000F009B84FEA430C5FEA5C5C08D081EAB2
:1031A000030100F05BB84FEA410C5FEA5C5CF6D1CA
:1031B0004FF00000014970470000FF070000F87F52
:1031C0000EF1020E2EF0030E5EF8046B364205D4AB
:1031D000012A43EB030515F5001F12D8012841EB26
:1031E000010C1CF5001F0CD80ED14FEAD17C15F54F
:1031F000001F0CEB4C0C0CF1020C08BF4CEBD37C09
:1032000004E04FF0080C01E04FEAD37C0CEB4C05D6
:1032100026FA05F606F00706B6F1040C06D20EEB08
:10322000860CBDE870404CF0010C6047DFE80CF004
:10323000090B02024FF000414FF00000A1F5002100
:1032400070BD19461046012851EB010418BFD4F592
:10325000001484BF002001F0004170BD0808A0F5F3
:1032600000114FEA3101704753EA010C17D41CF5E5
:10327000801F58BFBCF5801F00F106808B4218BF2D
:10328000704708BF8242704707D713F5801F58BFA9
:1032900011F5801F19D48B4270479B4270471CF573
:1032A000801F08D5BCF5801FF7D5994218BF70471D
:1032B00008BF904270474FF4001C1CEB430F38BF0F
:1032C0001CEB410F01D2994270470FB40CBC03BCF8
:1032D000FFF7C1BE91EA030F10B581F000413FF541
:1032E00017AC83F0004300F0EFB800002DE9F04187
:1032F00001F5801CBCF5001FC0F2C3804FEA115CD1
:1033000021EA0C510CF1FD0C41F480115FEA5C0CD8
:103310000CF5C07C01D3400049413DA4890241EA3B
:10332000905187028E0E0A0CA45D04FB04F602FB8A
:1033300006F6C6F14046A4FB0662F60D46EA4226B2
:1033400006FB06F4A4FB01235242C3F1404338BFFD
:103350005B1EA6FB02420024E6FB0324D20B42EADA
:103360004446A6FB0623A1FB02E2A3FB07E4A41844
:103370004FF0000252F10002E3FB01426442C2F14D
:10338000404E38BFAEF1010EA6FB04234FF0000201
:10339000E6FB0E32A2FB03464FF00004B61954F1CF
:1033A0000004E2FB0264A1FB06E6A4FB07E816EBBF
:1033B00008064FF0000858F10008E4FB0168764267
:1033C000C8F1405838BFA8F10108A2FB06E4A3FBEE
:1033D00008E52D194FF0000454F10004E2FB0854F5
:1033E000A1FB05E6A7FB04E818EB06084FF0000672
:1033F00056F10006E1FB048618F1200556F100069F
:10340000A809A8F11B08B10908F03F08B8F10A0F94
:1034100040EA86601CD901EB0C51BDE8F08100BF89
:10342000FCF5EEE8E2DDD8D3CFCBC7C3C0BDB9B65B
:10343000B4B1AEACA9A7A5A3A19F9D9B9A98969560
:103440009392908F8D8C8B898887868584838281E7
:10345000A0FB006800FB01F208EB4208B8EB8728EC
:1034600007D5341858EB0104D5D5401C51F10001A3
:10347000D1E7341A78EB0104CDD4401E71F100017C
:10348000C9E75FEA4C0C5FEA9C5C0DD105D34FF0B5
:10349000000001F00041BDE8F081BDE8F04170B5E9
:1034A000FFF78EFE6DDBFFBEBDE8F0414FF0000080
:1034B000004970470000F87F10B591EA030F48BF3C
:1034C00083F000433FF524AB841A71EB030C07D261
:1034D00012198CF0004C43EB0C03001B61EB0C0148
:1034E000DFF8A4E14FEA1154A4EB135C1EEA430F8A
:1034F00018BF9EEA445F00F0B08023EA6E03524298
:1035000021EA0451C3EB6E0338BF5B1EDCF1200ED1
:1035100025D322FA0CFE10EB0E0043FA0CFE41EB11
:103520000E01CCF1200E03FA0EFE10EB0E0051F14D
:103530000001CCF1200E29D412FA0EF201EB045155
:10354000BDE8104058BF7047401C1CBFB2F1004F8F
:10355000704700280CBF491C20F00100704712EB97
:10356000020E43EB030218BF4FF0010E4EEA420277
:10357000ACF1200CDCF11E0E54D943FA0CFE10EB1A
:103580000E0051F1FF31CCF11E0ED5D50EF1010E1A
:1035900012FA0EFE404141EB010101EB445C5FEA8F
:1035A0005C5C10D910EBDE7001EB045138BFBEF14A
:1035B000004FBDE8104018BF704700280CBF491CE1
:1035C00020F00100704730D24FEAD42C11F50011E1
:1035D00024F400641BD0B1FA81F20B3AA41AA41EA1
:1035E000D2F12003914030FA03F31943904001EBEC
:1035F000CC71002C01EB0451BDE81040A8BF70470E
:1036000001F1C0414FF0000001F000417047B0FAF5
:1036100080F310FA03F100D110BDE41A173C4805FD
:10362000C90AE4E701EB045110BD491001EB045154
:10363000BDE810404FEA300002E04FF00001704753
:103640004A0008BF0042F8D0B2F5001F28BF7047FB
:1036500001F000414FF0000070479EEA445F07D040
:1036600011EA5E0FBDE8104004BF00210020704742
:10367000BDE8104070B5FFF7A3FD00BF40DFF63E88
:1036800083F00041104670470000E0FF43004FEA1E
:10369000D30C4FEA3C0C43401FBF40070CF1605174
:1036A00013F0FE4F70471CF0006F03D100200CF0A8
:1036B000004170470CF0004343EA507010B540EAF7
:1036C000CC0000F00EF800BF000000924FEA0001AD
:1036D000FFF7C4BD4FF000414FF00000A1F50021FD
:1036E00070470EF1020E2EF0030E5EF8044B2442DA
:1036F00004D44FEA4102B2F17F4F11D84FEA4003A0
:10370000B3F17F4F0CD80ED14FEAD07CB2F17F4F8E
:103710000CEB4C0C0CF1020C08BF4CEBD17C04E020
:103720004FF0080C01E04FEAD17C0CEB4C0324FA7B
:1037300003F404F00704B4F1040C06D20EEB840C7D
:10374000BDE810404CF0010C6047DFE80CF00708C2
:1037500002024FF00040A0F5800010BD0846420074
:1037600018BFD2F1807288BF00F0004010BDFF2169
:1037700041EAD050C00570470CF00F03092B08BF79
:10378000082000F059800A2B0BD0082B18BF704777
:1037900008BF1CF0400F0AD04FF000004FF00001AE
:1037A00070471CF0400F18BF4FF0004070471CF0EE
:1037B000100F08D020F0704300F07F4242EAD3019E
:1037C0004FEA4370704700F0604021F07F4242EAC8
:1037D000000201F07F4040EA727070474FF0FF0C2A
:1037E0004CF4E06C1CEA11531CBF9CEA030C94459A
:1037F000C2BFDA4201EB02517047002B0DD0BCF181
:10380000000F0FD0002A01F00041A4BF41F0E041B9
:1038100041F07F614FF00000704701F000414FF030
:103820000000704750EA01334FF09B0C18BF4CF07A
:10383000806C7FF40DAA70471CF4801F11D01CF41B
:10384000E02F03D06FEACC31490070474FF0405071
:10385000EFF3008222F0704242EA000282F3008815
:1038600070474FF0000070470000000000000000AB
:103870000102030406070809000000000000F03FF1
:10388000000000000000F83F000000000000000001
:103890000000004003B8E23F00000000000000000C
:1038A00006D0CF43EBFD4C3E033333333333E33F9A
:1038B000FFAB6FDBB66DDB3F4D268F515555D53FC6
:1038C00001411DA96074D13F65DBC9934A86CD3F94
:1038D000EF4E454A287ECA3F3E5555555555C53F82
:1038E00093BDBE166CC166BF2CDE25AF6A56113F74
:1038F000F16BD2C541BDBBBED0A4BE726937663E76
:10390000000000000000000028390008000000202E
:1039100050000000280100087839000850000020FD
:1039200058080000440100080000000000000000EA
:103930000000000000000000000000000000000087
:103940000000000000000000000000000000000077
:103950000000000000000000000000000000000067
:103960000000000000000000010000001000000046
:08397000000000000024F40037
:04000005080000ED02
:00000001FF
